{
  "_format": "hh-sol-artifact-1",
  "contractName": "UDC",
  "sourceName": "contracts/UDC.sol",
  "abi": [
    {
      "inputs": [],
      "stateMutability": "nonpayable",
      "type": "constructor"
    },
    {
      "anonymous": false,
      "inputs": [
        {
          "indexed": true,
          "internalType": "address",
          "name": "owner",
          "type": "address"
        },
        {
          "indexed": true,
          "internalType": "address",
          "name": "spender",
          "type": "address"
        },
        {
          "indexed": false,
          "internalType": "uint256",
          "name": "value",
          "type": "uint256"
        }
      ],
      "name": "Approval",
      "type": "event"
    },
    {
      "anonymous": false,
      "inputs": [
        {
          "indexed": false,
          "internalType": "uint256",
          "name": "_maxTxAmount",
          "type": "uint256"
        }
      ],
      "name": "MaxTxAmountUpdated",
      "type": "event"
    },
    {
      "anonymous": false,
      "inputs": [
        {
          "indexed": true,
          "internalType": "address",
          "name": "previousOwner",
          "type": "address"
        },
        {
          "indexed": true,
          "internalType": "address",
          "name": "newOwner",
          "type": "address"
        }
      ],
      "name": "OwnershipTransferred",
      "type": "event"
    },
    {
      "anonymous": false,
      "inputs": [
        {
          "indexed": true,
          "internalType": "address",
          "name": "from",
          "type": "address"
        },
        {
          "indexed": true,
          "internalType": "address",
          "name": "to",
          "type": "address"
        },
        {
          "indexed": false,
          "internalType": "uint256",
          "name": "value",
          "type": "uint256"
        }
      ],
      "name": "Transfer",
      "type": "event"
    },
    {
      "inputs": [],
      "name": "_bettingContract",
      "outputs": [
        {
          "internalType": "address",
          "name": "",
          "type": "address"
        }
      ],
      "stateMutability": "view",
      "type": "function"
    },
    {
      "inputs": [],
      "name": "_maxTaxSwap",
      "outputs": [
        {
          "internalType": "uint256",
          "name": "",
          "type": "uint256"
        }
      ],
      "stateMutability": "view",
      "type": "function"
    },
    {
      "inputs": [],
      "name": "_maxTxAmount",
      "outputs": [
        {
          "internalType": "uint256",
          "name": "",
          "type": "uint256"
        }
      ],
      "stateMutability": "view",
      "type": "function"
    },
    {
      "inputs": [],
      "name": "_maxWalletSize",
      "outputs": [
        {
          "internalType": "uint256",
          "name": "",
          "type": "uint256"
        }
      ],
      "stateMutability": "view",
      "type": "function"
    },
    {
      "inputs": [],
      "name": "_taxSwapThreshold",
      "outputs": [
        {
          "internalType": "uint256",
          "name": "",
          "type": "uint256"
        }
      ],
      "stateMutability": "view",
      "type": "function"
    },
    {
      "inputs": [
        {
          "internalType": "address",
          "name": "owner",
          "type": "address"
        },
        {
          "internalType": "address",
          "name": "spender",
          "type": "address"
        }
      ],
      "name": "allowance",
      "outputs": [
        {
          "internalType": "uint256",
          "name": "",
          "type": "uint256"
        }
      ],
      "stateMutability": "view",
      "type": "function"
    },
    {
      "inputs": [
        {
          "internalType": "address",
          "name": "spender",
          "type": "address"
        },
        {
          "internalType": "uint256",
          "name": "amount",
          "type": "uint256"
        }
      ],
      "name": "approve",
      "outputs": [
        {
          "internalType": "bool",
          "name": "",
          "type": "bool"
        }
      ],
      "stateMutability": "nonpayable",
      "type": "function"
    },
    {
      "inputs": [
        {
          "internalType": "address",
          "name": "account",
          "type": "address"
        }
      ],
      "name": "balanceOf",
      "outputs": [
        {
          "internalType": "uint256",
          "name": "",
          "type": "uint256"
        }
      ],
      "stateMutability": "view",
      "type": "function"
    },
    {
      "inputs": [],
      "name": "decimals",
      "outputs": [
        {
          "internalType": "uint8",
          "name": "",
          "type": "uint8"
        }
      ],
      "stateMutability": "pure",
      "type": "function"
    },
    {
      "inputs": [
        {
          "internalType": "address",
          "name": "a",
          "type": "address"
        }
      ],
      "name": "isBot",
      "outputs": [
        {
          "internalType": "bool",
          "name": "",
          "type": "bool"
        }
      ],
      "stateMutability": "view",
      "type": "function"
    },
    {
      "inputs": [],
      "name": "manualSwap",
      "outputs": [],
      "stateMutability": "nonpayable",
      "type": "function"
    },
    {
      "inputs": [],
      "name": "name",
      "outputs": [
        {
          "internalType": "string",
          "name": "",
          "type": "string"
        }
      ],
      "stateMutability": "pure",
      "type": "function"
    },
    {
      "inputs": [],
      "name": "openTrading",
      "outputs": [],
      "stateMutability": "nonpayable",
      "type": "function"
    },
    {
      "inputs": [],
      "name": "owner",
      "outputs": [
        {
          "internalType": "address",
          "name": "",
          "type": "address"
        }
      ],
      "stateMutability": "view",
      "type": "function"
    },
    {
      "inputs": [],
      "name": "removeLimits",
      "outputs": [],
      "stateMutability": "nonpayable",
      "type": "function"
    },
    {
      "inputs": [],
      "name": "renounceOwnership",
      "outputs": [],
      "stateMutability": "nonpayable",
      "type": "function"
    },
    {
      "inputs": [
        {
          "internalType": "address",
          "name": "bettingContract",
          "type": "address"
        }
      ],
      "name": "setBettingContract",
      "outputs": [],
      "stateMutability": "nonpayable",
      "type": "function"
    },
    {
      "inputs": [],
      "name": "setFinalTax",
      "outputs": [],
      "stateMutability": "nonpayable",
      "type": "function"
    },
    {
      "inputs": [
        {
          "internalType": "uint256",
          "name": "newTax",
          "type": "uint256"
        }
      ],
      "name": "setMaxTaxSwap",
      "outputs": [],
      "stateMutability": "nonpayable",
      "type": "function"
    },
    {
      "inputs": [
        {
          "internalType": "uint256",
          "name": "newTax",
          "type": "uint256"
        }
      ],
      "name": "setTaxSwapThreshold",
      "outputs": [],
      "stateMutability": "nonpayable",
      "type": "function"
    },
    {
      "inputs": [],
      "name": "symbol",
      "outputs": [
        {
          "internalType": "string",
          "name": "",
          "type": "string"
        }
      ],
      "stateMutability": "pure",
      "type": "function"
    },
    {
      "inputs": [],
      "name": "totalSupply",
      "outputs": [
        {
          "internalType": "uint256",
          "name": "",
          "type": "uint256"
        }
      ],
      "stateMutability": "pure",
      "type": "function"
    },
    {
      "inputs": [
        {
          "internalType": "address",
          "name": "recipient",
          "type": "address"
        },
        {
          "internalType": "uint256",
          "name": "amount",
          "type": "uint256"
        }
      ],
      "name": "transfer",
      "outputs": [
        {
          "internalType": "bool",
          "name": "",
          "type": "bool"
        }
      ],
      "stateMutability": "nonpayable",
      "type": "function"
    },
    {
      "inputs": [],
      "name": "transferDelayEnabled",
      "outputs": [
        {
          "internalType": "bool",
          "name": "",
          "type": "bool"
        }
      ],
      "stateMutability": "view",
      "type": "function"
    },
    {
      "inputs": [
        {
          "internalType": "address",
          "name": "sender",
          "type": "address"
        },
        {
          "internalType": "address",
          "name": "recipient",
          "type": "address"
        },
        {
          "internalType": "uint256",
          "name": "amount",
          "type": "uint256"
        }
      ],
      "name": "transferFrom",
      "outputs": [
        {
          "internalType": "bool",
          "name": "",
          "type": "bool"
        }
      ],
      "stateMutability": "nonpayable",
      "type": "function"
    },
    {
      "stateMutability": "payable",
      "type": "receive"
    }
  ],
  "bytecode": "0x60806040526007805460ff1990811690915560636009819055600a9081556005600b819055600c55601e600d556000600e55600f8054909216909155620000499060089062000522565b6200005890620186a06200053a565b601055620000696008600a62000522565b6200007890620186a06200053a565b601155620000896008600a62000522565b6200009890620186a06200053a565b601255620000a96008600a62000522565b620000b890620186a06200053a565b6013556015805461ffff60a81b19169055348015620000d657600080fd5b50600080546001600160a01b031916339081178255604051909182917f8be0079c531659141344cd1fd0a4f28419497f9722a3daafe3b4186f6b6457e0908290a350601480546001600160a01b031916737a250d5630b4cf539739df2c5dacb4c659f2488d9081179091556040805163c45a015560e01b8152905163c45a0155916004808201926020929091908290030181865afa1580156200017d573d6000803e3d6000fd5b505050506040513d601f19601f82011682018060405250810190620001a3919062000554565b6001600160a01b031663c9c6539630601460009054906101000a90046001600160a01b03166001600160a01b031663ad5c46486040518163ffffffff1660e01b8152600401602060405180830381865afa15801562000206573d6000803e3d6000fd5b505050506040513d601f19601f820116820180604052508101906200022c919062000554565b6040516001600160e01b031960e085901b1681526001600160a01b039283166004820152911660248201526044016020604051808303816000875af11580156200027a573d6000803e3d6000fd5b505050506040513d601f19601f82011682018060405250810190620002a0919062000554565b601580546001600160a01b0319166001600160a01b0392909216919091179055620002c83390565b600780546001600160a01b039290921661010002610100600160a81b0319909216919091179055620002fd6008600a62000522565b6200030c90629896806200053a565b336000908152600160208190526040822092909255600390620003376000546001600160a01b031690565b6001600160a01b03908116825260208083019390935260409182016000908120805495151560ff1996871617905530815260039093528183208054851660019081179091556007546101009004821684528284208054861682179055600854909116835291208054909216179055620003ad3390565b6001600160a01b031660007fddf252ad1be2c89b69c2b068fc378daa952ba7f163c4a11628f55a4df523b3ef620003e76008600a62000522565b620003f690629896806200053a565b60405190815260200160405180910390a36200057f565b634e487b7160e01b600052601160045260246000fd5b600181815b80851115620004645781600019048211156200044857620004486200040d565b808516156200045657918102915b93841c939080029062000428565b509250929050565b6000826200047d575060016200051c565b816200048c575060006200051c565b8160018114620004a55760028114620004b057620004d0565b60019150506200051c565b60ff841115620004c457620004c46200040d565b50506001821b6200051c565b5060208310610133831016604e8410600b8410161715620004f5575081810a6200051c565b62000501838362000423565b80600019048211156200051857620005186200040d565b0290505b92915050565b60006200053360ff8416836200046c565b9392505050565b80820281158282048414176200051c576200051c6200040d565b6000602082840312156200056757600080fd5b81516001600160a01b03811681146200053357600080fd5b61186d806200058f6000396000f3fe60806040526004361061016a5760003560e01c80637d1db4a5116100d1578063bc0425c11161008a578063c9567bf911610064578063c9567bf91461045d578063dd62ed3e14610472578063de2aa57d146104b8578063ec6c1290146104d857600080fd5b8063bc0425c11461040d578063bf474bed1461042d578063c876d0b91461044357600080fd5b80637d1db4a5146103435780638da5cb5b146103595780638f9a55c01461038b57806395d89b41146103a1578063a9059cbb146103cd578063b9d0f1af146103ed57600080fd5b8063313ce56711610123578063313ce567146102795780633bbac5791461029557806351bc3c85146102ce57806370a08231146102e3578063715018a614610319578063751039fc1461032e57600080fd5b806306fdde0314610176578063095ea7b3146101ce5780630faee56f146101fe57806318160ddd1461022257806323b872dd1461023757806330fce48b1461025757600080fd5b3661017157005b600080fd5b34801561018257600080fd5b5060408051808201909152601b81527f556c74696d61746520446567656e204368616d70696f6e73686970000000000060208201525b6040516101c59190611473565b60405180910390f35b3480156101da57600080fd5b506101ee6101e93660046114d9565b6104ed565b60405190151581526020016101c5565b34801561020a57600080fd5b5061021460135481565b6040519081526020016101c5565b34801561022e57600080fd5b50610214610504565b34801561024357600080fd5b506101ee610252366004611505565b610524565b34801561026357600080fd5b50610277610272366004611546565b61058d565b005b34801561028557600080fd5b50604051600881526020016101c5565b3480156102a157600080fd5b506101ee6102b0366004611546565b6001600160a01b031660009081526005602052604090205460ff1690565b3480156102da57600080fd5b506102776105e2565b3480156102ef57600080fd5b506102146102fe366004611546565b6001600160a01b031660009081526001602052604090205490565b34801561032557600080fd5b5061027761063a565b34801561033a57600080fd5b506102776106ae565b34801561034f57600080fd5b5061021460105481565b34801561036557600080fd5b506000546001600160a01b03165b6040516001600160a01b0390911681526020016101c5565b34801561039757600080fd5b5061021460115481565b3480156103ad57600080fd5b5060408051808201909152600381526255444360e81b60208201526101b8565b3480156103d957600080fd5b506101ee6103e83660046114d9565b610767565b3480156103f957600080fd5b50610277610408366004611563565b610774565b34801561041957600080fd5b50600854610373906001600160a01b031681565b34801561043957600080fd5b5061021460125481565b34801561044f57600080fd5b506007546101ee9060ff1681565b34801561046957600080fd5b506102776107a3565b34801561047e57600080fd5b5061021461048d36600461157c565b6001600160a01b03918216600090815260026020908152604080832093909416825291909152205490565b3480156104c457600080fd5b506102776104d3366004611563565b610840565b3480156104e457600080fd5b5061027761086f565b60006104fa3384846108a8565b5060015b92915050565b60006105126008600a6116af565b61051f90629896806116be565b905090565b60006105318484846109cc565b610583843361057e85604051806060016040528060288152602001611810602891396001600160a01b038a16600090815260026020908152604080832033845290915290205491906110b9565b6108a8565b5060019392505050565b6000546001600160a01b031633146105c05760405162461bcd60e51b81526004016105b7906116d5565b60405180910390fd5b600880546001600160a01b0319166001600160a01b0392909216919091179055565b60075461010090046001600160a01b0316336001600160a01b03161461060757600080fd5b30600090815260016020526040902054801561062657610626816110f3565b4780156106365761063681611286565b5050565b6000546001600160a01b031633146106645760405162461bcd60e51b81526004016105b7906116d5565b600080546040516001600160a01b03909116907f8be0079c531659141344cd1fd0a4f28419497f9722a3daafe3b4186f6b6457e0908390a3600080546001600160a01b0319169055565b6000546001600160a01b031633146106d85760405162461bcd60e51b81526004016105b7906116d5565b6106e46008600a6116af565b6106f190629896806116be565b6010556107006008600a6116af565b61070d90629896806116be565b6011556007805460ff191690557f947f344d56e1e8c70dc492fb94c4ddddd490c016aab685f5e7e47b2e85cb44cf6107476008600a6116af565b61075490629896806116be565b60405190815260200160405180910390a1565b60006104fa3384846109cc565b6000546001600160a01b0316331461079e5760405162461bcd60e51b81526004016105b7906116d5565b601355565b6000546001600160a01b031633146107cd5760405162461bcd60e51b81526004016105b7906116d5565b601554600160a01b900460ff16156108275760405162461bcd60e51b815260206004820152601760248201527f74726164696e6720697320616c7265616479206f70656e00000000000000000060448201526064016105b7565b6015805462ff00ff60a01b19166201000160a01b179055565b6000546001600160a01b0316331461086a5760405162461bcd60e51b81526004016105b7906116d5565b601255565b6000546001600160a01b031633146108995760405162461bcd60e51b81526004016105b7906116d5565b600f805460ff19166001179055565b6001600160a01b03831661090a5760405162461bcd60e51b8152602060048201526024808201527f45524332303a20617070726f76652066726f6d20746865207a65726f206164646044820152637265737360e01b60648201526084016105b7565b6001600160a01b03821661096b5760405162461bcd60e51b815260206004820152602260248201527f45524332303a20617070726f766520746f20746865207a65726f206164647265604482015261737360f01b60648201526084016105b7565b6001600160a01b0383811660008181526002602090815260408083209487168084529482529182902085905590518481527f8c5be1e5ebec7d5bd14f71427d1e84f3dd0314c0f7b2291e5b200ac8c7c3b925910160405180910390a3505050565b6001600160a01b038316610a305760405162461bcd60e51b815260206004820152602560248201527f45524332303a207472616e736665722066726f6d20746865207a65726f206164604482015264647265737360d81b60648201526084016105b7565b6001600160a01b038216610a925760405162461bcd60e51b815260206004820152602360248201527f45524332303a207472616e7366657220746f20746865207a65726f206164647260448201526265737360e81b60648201526084016105b7565b60008111610af45760405162461bcd60e51b815260206004820152602960248201527f5472616e7366657220616d6f756e74206d7573742062652067726561746572206044820152687468616e207a65726f60b81b60648201526084016105b7565b600080546001600160a01b03858116911614801590610b2157506000546001600160a01b03848116911614155b15610f76576001600160a01b03841660009081526005602052604090205460ff16158015610b6857506001600160a01b03831660009081526005602052604090205460ff16155b610b7157600080fd5b60075460ff1615610c2a576014546001600160a01b03848116911614801590610ba857506015546001600160a01b03848116911614155b15610c2a57326000908152600660205260409020544311610c175760405162461bcd60e51b8152602060048201526024808201527f4f6e6c79206f6e65207472616e736665722070657220626c6f636b20616c6c6f6044820152633bb2b21760e11b60648201526084016105b7565b3260009081526006602052604090204390555b6015546001600160a01b038581169116148015610c5557506014546001600160a01b03848116911614155b8015610c7a57506001600160a01b03831660009081526003602052604090205460ff16155b15610d9957601054821115610ccd5760405162461bcd60e51b815260206004820152601960248201527822bc31b2b2b239903a3432902fb6b0bc2a3c20b6b7bab73a1760391b60448201526064016105b7565b60115482610cf0856001600160a01b031660009081526001602052604090205490565b610cfa919061170a565b1115610d485760405162461bcd60e51b815260206004820152601a60248201527f4578636565647320746865206d617857616c6c657453697a652e00000000000060448201526064016105b7565b600d54600e541015610d6057823b15610d6057600080fd5b600e8054906000610d708361171d565b90915550506001600160a01b0383166000908152600460205260409020805460ff191660011790555b600f54610dc790606490610dc19060ff16610db657600954610dba565b600b545b85906112c4565b9061134d565b6015549091506001600160a01b038481169116148015610df057506001600160a01b0384163014155b15610ed857601054821115610e435760405162461bcd60e51b815260206004820152601960248201527822bc31b2b2b239903a3432902fb6b0bc2a3c20b6b7bab73a1760391b60448201526064016105b7565b600f54610e6a90606490610dc19060ff16610e6057600a54610dba565b600c5485906112c4565b9050600d54600e541180610e9657506001600160a01b03841660009081526004602052604090205460ff165b610ed85760405162461bcd60e51b815260206004820152601360248201527229b2b63632b91034b9903737ba10313abcb2b960691b60448201526064016105b7565b30600090815260016020526040902054601554600160a81b900460ff16158015610f0f57506015546001600160a01b038581169116145b8015610f245750601554600160b01b900460ff165b8015610f31575060125481115b8015610f405750600d54600e54115b15610f7457610f62610f5d84610f588460135461138f565b61138f565b6110f3565b478015610f7257610f7247611286565b505b505b8015610ff05730600090815260016020526040902054610f9690826113a4565b30600081815260016020526040908190209290925590516001600160a01b038616907fddf252ad1be2c89b69c2b068fc378daa952ba7f163c4a11628f55a4df523b3ef90610fe79085815260200190565b60405180910390a35b6001600160a01b0384166000908152600160205260409020546110139083611403565b6001600160a01b0385166000908152600160205260409020556110586110398383611403565b6001600160a01b038516600090815260016020526040902054906113a4565b6001600160a01b0380851660008181526001602052604090209290925585167fddf252ad1be2c89b69c2b068fc378daa952ba7f163c4a11628f55a4df523b3ef6110a28585611403565b60405190815260200160405180910390a350505050565b600081848411156110dd5760405162461bcd60e51b81526004016105b79190611473565b5060006110ea8486611736565b95945050505050565b6015805460ff60a81b1916600160a81b179055801561127657601554600160a01b900460ff161561127657604080516002808252606082018352600092602083019080368337019050509050308160008151811061115357611153611749565b6001600160a01b03928316602091820292909201810191909152601454604080516315ab88c960e31b81529051919093169263ad5c46489260048083019391928290030181865afa1580156111ac573d6000803e3d6000fd5b505050506040513d601f19601f820116820180604052508101906111d0919061175f565b816001815181106111e3576111e3611749565b6001600160a01b03928316602091820292909201015260145461120991309116846108a8565b60145460405163791ac94760e01b81526001600160a01b039091169063791ac9479061124290859060009086903090429060040161177c565b600060405180830381600087803b15801561125c57600080fd5b505af1158015611270573d6000803e3d6000fd5b50505050505b506015805460ff60a81b19169055565b6007546040516101009091046001600160a01b0316906108fc8315029083906000818181858888f19350505050158015610636573d6000803e3d6000fd5b6000826000036112d6575060006104fe565b60006112e283856116be565b9050826112ef85836117ed565b146113465760405162461bcd60e51b815260206004820152602160248201527f536166654d6174683a206d756c7469706c69636174696f6e206f766572666c6f6044820152607760f81b60648201526084016105b7565b9392505050565b600061134683836040518060400160405280601a81526020017f536166654d6174683a206469766973696f6e206279207a65726f000000000000815250611445565b600081831161139e5782611346565b50919050565b6000806113b1838561170a565b9050838110156113465760405162461bcd60e51b815260206004820152601b60248201527f536166654d6174683a206164646974696f6e206f766572666c6f77000000000060448201526064016105b7565b600061134683836040518060400160405280601e81526020017f536166654d6174683a207375627472616374696f6e206f766572666c6f7700008152506110b9565b600081836114665760405162461bcd60e51b81526004016105b79190611473565b5060006110ea84866117ed565b600060208083528351808285015260005b818110156114a057858101830151858201604001528201611484565b506000604082860101526040601f19601f8301168501019250505092915050565b6001600160a01b03811681146114d657600080fd5b50565b600080604083850312156114ec57600080fd5b82356114f7816114c1565b946020939093013593505050565b60008060006060848603121561151a57600080fd5b8335611525816114c1565b92506020840135611535816114c1565b929592945050506040919091013590565b60006020828403121561155857600080fd5b8135611346816114c1565b60006020828403121561157557600080fd5b5035919050565b6000806040838503121561158f57600080fd5b823561159a816114c1565b915060208301356115aa816114c1565b809150509250929050565b634e487b7160e01b600052601160045260246000fd5b600181815b808511156116065781600019048211156115ec576115ec6115b5565b808516156115f957918102915b93841c93908002906115d0565b509250929050565b60008261161d575060016104fe565b8161162a575060006104fe565b8160018114611640576002811461164a57611666565b60019150506104fe565b60ff84111561165b5761165b6115b5565b50506001821b6104fe565b5060208310610133831016604e8410600b8410161715611689575081810a6104fe565b61169383836115cb565b80600019048211156116a7576116a76115b5565b029392505050565b600061134660ff84168361160e565b80820281158282048414176104fe576104fe6115b5565b6020808252818101527f4f776e61626c653a2063616c6c6572206973206e6f7420746865206f776e6572604082015260600190565b808201808211156104fe576104fe6115b5565b60006001820161172f5761172f6115b5565b5060010190565b818103818111156104fe576104fe6115b5565b634e487b7160e01b600052603260045260246000fd5b60006020828403121561177157600080fd5b8151611346816114c1565b600060a082018783526020878185015260a0604085015281875180845260c086019150828901935060005b818110156117cc5784516001600160a01b0316835293830193918301916001016117a7565b50506001600160a01b03969096166060850152505050608001529392505050565b60008261180a57634e487b7160e01b600052601260045260246000fd5b50049056fe45524332303a207472616e7366657220616d6f756e74206578636565647320616c6c6f77616e6365a264697066735822122026d47cf7755c152af00529f0a94c560cd444b5e442f9d3ad1cc2c16c7b2c2e8764736f6c63430008140033",
  "linkReferences": {},
  "deployedLinkReferences": {}
}