{
  "_format": "hh-sol-artifact-1",
  "contractName": "Betting",
  "sourceName": "contracts/Betting.sol",
  "abi": [
    {
      "inputs": [
        {
          "internalType": "address",
          "name": "_token",
          "type": "address"
        },
        {
          "internalType": "address[]",
          "name": "admins",
          "type": "address[]"
        }
      ],
      "stateMutability": "nonpayable",
      "type": "constructor"
    },
    {
      "anonymous": false,
      "inputs": [
        {
          "indexed": false,
          "internalType": "uint256",
          "name": "gameId",
          "type": "uint256"
        },
        {
          "indexed": false,
          "internalType": "uint256",
          "name": "winner",
          "type": "uint256"
        }
      ],
      "name": "GameEnded",
      "type": "event"
    },
    {
      "anonymous": false,
      "inputs": [
        {
          "indexed": false,
          "internalType": "uint256",
          "name": "gameId",
          "type": "uint256"
        },
        {
          "indexed": false,
          "internalType": "uint256",
          "name": "startTime",
          "type": "uint256"
        },
        {
          "indexed": false,
          "internalType": "uint256",
          "name": "endTime",
          "type": "uint256"
        }
      ],
      "name": "GameStarted",
      "type": "event"
    },
    {
      "anonymous": false,
      "inputs": [
        {
          "indexed": true,
          "internalType": "address",
          "name": "previousOwner",
          "type": "address"
        },
        {
          "indexed": true,
          "internalType": "address",
          "name": "newOwner",
          "type": "address"
        }
      ],
      "name": "OwnershipTransferred",
      "type": "event"
    },
    {
      "anonymous": false,
      "inputs": [
        {
          "indexed": true,
          "internalType": "bytes32",
          "name": "role",
          "type": "bytes32"
        },
        {
          "indexed": true,
          "internalType": "bytes32",
          "name": "previousAdminRole",
          "type": "bytes32"
        },
        {
          "indexed": true,
          "internalType": "bytes32",
          "name": "newAdminRole",
          "type": "bytes32"
        }
      ],
      "name": "RoleAdminChanged",
      "type": "event"
    },
    {
      "anonymous": false,
      "inputs": [
        {
          "indexed": true,
          "internalType": "bytes32",
          "name": "role",
          "type": "bytes32"
        },
        {
          "indexed": true,
          "internalType": "address",
          "name": "account",
          "type": "address"
        },
        {
          "indexed": true,
          "internalType": "address",
          "name": "sender",
          "type": "address"
        }
      ],
      "name": "RoleGranted",
      "type": "event"
    },
    {
      "anonymous": false,
      "inputs": [
        {
          "indexed": true,
          "internalType": "bytes32",
          "name": "role",
          "type": "bytes32"
        },
        {
          "indexed": true,
          "internalType": "address",
          "name": "account",
          "type": "address"
        },
        {
          "indexed": true,
          "internalType": "address",
          "name": "sender",
          "type": "address"
        }
      ],
      "name": "RoleRevoked",
      "type": "event"
    },
    {
      "inputs": [],
      "name": "ADMIN_ROLE",
      "outputs": [
        {
          "internalType": "bytes32",
          "name": "",
          "type": "bytes32"
        }
      ],
      "stateMutability": "view",
      "type": "function"
    },
    {
      "inputs": [],
      "name": "DEFAULT_ADMIN_ROLE",
      "outputs": [
        {
          "internalType": "bytes32",
          "name": "",
          "type": "bytes32"
        }
      ],
      "stateMutability": "view",
      "type": "function"
    },
    {
      "inputs": [
        {
          "internalType": "uint256",
          "name": "_bet",
          "type": "uint256"
        },
        {
          "internalType": "uint256",
          "name": "fighter",
          "type": "uint256"
        }
      ],
      "name": "bet",
      "outputs": [],
      "stateMutability": "nonpayable",
      "type": "function"
    },
    {
      "inputs": [],
      "name": "emergencyStopBets",
      "outputs": [],
      "stateMutability": "nonpayable",
      "type": "function"
    },
    {
      "inputs": [
        {
          "internalType": "uint256",
          "name": "_winner",
          "type": "uint256"
        }
      ],
      "name": "endGame",
      "outputs": [],
      "stateMutability": "nonpayable",
      "type": "function"
    },
    {
      "inputs": [],
      "name": "gameId",
      "outputs": [
        {
          "internalType": "uint256",
          "name": "",
          "type": "uint256"
        }
      ],
      "stateMutability": "view",
      "type": "function"
    },
    {
      "inputs": [],
      "name": "gameStarted",
      "outputs": [
        {
          "internalType": "bool",
          "name": "",
          "type": "bool"
        }
      ],
      "stateMutability": "view",
      "type": "function"
    },
    {
      "inputs": [
        {
          "internalType": "uint256",
          "name": "",
          "type": "uint256"
        }
      ],
      "name": "games",
      "outputs": [
        {
          "internalType": "uint256",
          "name": "id",
          "type": "uint256"
        },
        {
          "internalType": "uint256",
          "name": "startTime",
          "type": "uint256"
        },
        {
          "internalType": "uint256",
          "name": "bettingEndTime",
          "type": "uint256"
        },
        {
          "internalType": "uint256",
          "name": "totalBetOnFighter1",
          "type": "uint256"
        },
        {
          "internalType": "uint256",
          "name": "totalBetOnFighter2",
          "type": "uint256"
        },
        {
          "internalType": "uint256",
          "name": "totalBet",
          "type": "uint256"
        },
        {
          "internalType": "uint256",
          "name": "winner",
          "type": "uint256"
        }
      ],
      "stateMutability": "view",
      "type": "function"
    },
    {
      "inputs": [
        {
          "internalType": "uint256",
          "name": "_gameId",
          "type": "uint256"
        }
      ],
      "name": "getBetOnFighter1",
      "outputs": [
        {
          "internalType": "address[]",
          "name": "",
          "type": "address[]"
        }
      ],
      "stateMutability": "view",
      "type": "function"
    },
    {
      "inputs": [
        {
          "internalType": "uint256",
          "name": "_gameId",
          "type": "uint256"
        }
      ],
      "name": "getBetOnFighter2",
      "outputs": [
        {
          "internalType": "address[]",
          "name": "",
          "type": "address[]"
        }
      ],
      "stateMutability": "view",
      "type": "function"
    },
    {
      "inputs": [
        {
          "internalType": "uint256",
          "name": "_gameId",
          "type": "uint256"
        }
      ],
      "name": "getGameInfo",
      "outputs": [
        {
          "internalType": "uint256",
          "name": "",
          "type": "uint256"
        },
        {
          "internalType": "uint256",
          "name": "",
          "type": "uint256"
        },
        {
          "internalType": "uint256",
          "name": "",
          "type": "uint256"
        },
        {
          "internalType": "uint256",
          "name": "",
          "type": "uint256"
        },
        {
          "internalType": "uint256",
          "name": "",
          "type": "uint256"
        },
        {
          "internalType": "uint256",
          "name": "",
          "type": "uint256"
        }
      ],
      "stateMutability": "view",
      "type": "function"
    },
    {
      "inputs": [],
      "name": "getLastGameId",
      "outputs": [
        {
          "internalType": "uint256",
          "name": "",
          "type": "uint256"
        }
      ],
      "stateMutability": "view",
      "type": "function"
    },
    {
      "inputs": [
        {
          "internalType": "bytes32",
          "name": "role",
          "type": "bytes32"
        }
      ],
      "name": "getRoleAdmin",
      "outputs": [
        {
          "internalType": "bytes32",
          "name": "",
          "type": "bytes32"
        }
      ],
      "stateMutability": "view",
      "type": "function"
    },
    {
      "inputs": [
        {
          "internalType": "bytes32",
          "name": "role",
          "type": "bytes32"
        },
        {
          "internalType": "address",
          "name": "account",
          "type": "address"
        }
      ],
      "name": "grantRole",
      "outputs": [],
      "stateMutability": "nonpayable",
      "type": "function"
    },
    {
      "inputs": [
        {
          "internalType": "bytes32",
          "name": "role",
          "type": "bytes32"
        },
        {
          "internalType": "address",
          "name": "account",
          "type": "address"
        }
      ],
      "name": "hasRole",
      "outputs": [
        {
          "internalType": "bool",
          "name": "",
          "type": "bool"
        }
      ],
      "stateMutability": "view",
      "type": "function"
    },
    {
      "inputs": [
        {
          "internalType": "address",
          "name": "_bettor",
          "type": "address"
        }
      ],
      "name": "isBettor",
      "outputs": [
        {
          "internalType": "bool",
          "name": "",
          "type": "bool"
        }
      ],
      "stateMutability": "view",
      "type": "function"
    },
    {
      "inputs": [],
      "name": "owner",
      "outputs": [
        {
          "internalType": "address",
          "name": "",
          "type": "address"
        }
      ],
      "stateMutability": "view",
      "type": "function"
    },
    {
      "inputs": [],
      "name": "renounceOwnership",
      "outputs": [],
      "stateMutability": "nonpayable",
      "type": "function"
    },
    {
      "inputs": [
        {
          "internalType": "bytes32",
          "name": "role",
          "type": "bytes32"
        },
        {
          "internalType": "address",
          "name": "account",
          "type": "address"
        }
      ],
      "name": "renounceRole",
      "outputs": [],
      "stateMutability": "nonpayable",
      "type": "function"
    },
    {
      "inputs": [
        {
          "internalType": "bytes32",
          "name": "role",
          "type": "bytes32"
        },
        {
          "internalType": "address",
          "name": "account",
          "type": "address"
        }
      ],
      "name": "revokeRole",
      "outputs": [],
      "stateMutability": "nonpayable",
      "type": "function"
    },
    {
      "inputs": [
        {
          "internalType": "uint256",
          "name": "_timeToBet",
          "type": "uint256"
        }
      ],
      "name": "setTimeToBet",
      "outputs": [],
      "stateMutability": "nonpayable",
      "type": "function"
    },
    {
      "inputs": [],
      "name": "startGame",
      "outputs": [],
      "stateMutability": "nonpayable",
      "type": "function"
    },
    {
      "inputs": [
        {
          "internalType": "bytes4",
          "name": "interfaceId",
          "type": "bytes4"
        }
      ],
      "name": "supportsInterface",
      "outputs": [
        {
          "internalType": "bool",
          "name": "",
          "type": "bool"
        }
      ],
      "stateMutability": "view",
      "type": "function"
    },
    {
      "inputs": [],
      "name": "timeToBet",
      "outputs": [
        {
          "internalType": "uint256",
          "name": "",
          "type": "uint256"
        }
      ],
      "stateMutability": "view",
      "type": "function"
    },
    {
      "inputs": [],
      "name": "token",
      "outputs": [
        {
          "internalType": "contract IERC20",
          "name": "",
          "type": "address"
        }
      ],
      "stateMutability": "view",
      "type": "function"
    },
    {
      "inputs": [
        {
          "internalType": "address",
          "name": "newOwner",
          "type": "address"
        }
      ],
      "name": "transferOwnership",
      "outputs": [],
      "stateMutability": "nonpayable",
      "type": "function"
    },
    {
      "inputs": [],
      "name": "withdraw",
      "outputs": [],
      "stateMutability": "nonpayable",
      "type": "function"
    },
    {
      "inputs": [
        {
          "internalType": "uint256",
          "name": "_amount",
          "type": "uint256"
        }
      ],
      "name": "withdrawAmount",
      "outputs": [],
      "stateMutability": "nonpayable",
      "type": "function"
    }
  ],
  "bytecode": "0x608060405260006003556102586004556005805460ff191690553480156200002657600080fd5b5060405162001f0f38038062001f0f833981016040819052620000499162000210565b6200005433620000f5565b600280546001600160a01b0319166001600160a01b0384161790556200007c60003362000145565b60005b8151811015620000ec57620000d77fa49807205ce4d355092ef5a8a18f56e8913cf4a201fbe287825b095693c21775838381518110620000c357620000c3620002f9565b60200260200101516200014560201b60201c565b80620000e3816200030f565b9150506200007f565b50505062000337565b600080546001600160a01b038381166001600160a01b0319831681178455604051919092169283917f8be0079c531659141344cd1fd0a4f28419497f9722a3daafe3b4186f6b6457e09190a35050565b62000151828262000155565b5050565b60008281526001602090815260408083206001600160a01b038516845290915290205460ff16620001515760008281526001602081815260408084206001600160a01b0386168086529252808420805460ff19169093179092559051339285917f2f8788117e7eff1d82e926ec794901d17c78024a50270940304540a733656f0d9190a45050565b80516001600160a01b0381168114620001f557600080fd5b919050565b634e487b7160e01b600052604160045260246000fd5b600080604083850312156200022457600080fd5b6200022f83620001dd565b602084810151919350906001600160401b03808211156200024f57600080fd5b818601915086601f8301126200026457600080fd5b815181811115620002795762000279620001fa565b8060051b604051601f19603f83011681018181108582111715620002a157620002a1620001fa565b604052918252848201925083810185019189831115620002c057600080fd5b938501935b82851015620002e957620002d985620001dd565b84529385019392850192620002c5565b8096505050505050509250929050565b634e487b7160e01b600052603260045260246000fd5b6000600182016200033057634e487b7160e01b600052601160045260246000fd5b5060010190565b611bc880620003476000396000f3fe608060405234801561001057600080fd5b50600436106101c45760003560e01c8063869c5e0f116100f9578063c7189dac11610097578063d65ab5f211610071578063d65ab5f214610495578063d7c81b551461049d578063f2fde38b146104a6578063fc0c546a146104b957600080fd5b8063c7189dac1461045c578063d0399bb81461046f578063d547741f1461048257600080fd5b8063a217fddf116100d3578063a217fddf14610423578063a35b6ec71461042b578063a685d4bc14610433578063b14ff5f11461043c57600080fd5b8063869c5e0f146103d85780638da5cb5b146103eb57806391d148541461041057600080fd5b8063429c2ed7116101665780636bbd7886116101405780636bbd7886146103a05780636ffcc719146103a8578063715018a6146103bb57806375b238fc146103c357600080fd5b8063429c2ed7146102e657806347e1d550146103245780635e123ce41461039357600080fd5b8063248a9ca3116101a2578063248a9ca3146102865780632f2ff15d146102b857806336568abe146102cb5780633ccfd60b146102de57600080fd5b806301ffc9a7146101c95780630562b9f7146101f1578063117a5b9014610206575b600080fd5b6101dc6101d736600461180d565b6104cc565b60405190151581526020015b60405180910390f35b6102046101ff366004611837565b610503565b005b610251610214366004611837565b600660205260009081526040902080546001820154600283015460058401546008850154600a860154600b90960154949593949293919290919087565b604080519788526020880196909652948601939093526060850191909152608084015260a083015260c082015260e0016101e8565b6102aa610294366004611837565b6000908152600160208190526040909120015490565b6040519081526020016101e8565b6102046102c636600461186c565b610660565b6102046102d936600461186c565b610686565b610204610704565b6101dc6102f4366004611898565b60035460009081526006602090815260408083206001600160a01b03909416835260099093019052205460ff1690565b610366610332366004611837565b600090815260066020526040902080546001820154600283015460058401546008850154600a909501549395929491939092565b604080519687526020870195909552938501929092526060840152608083015260a082015260c0016101e8565b6005546101dc9060ff1681565b610204610813565b6102046103b63660046118b3565b610898565b610204610ce9565b6102aa600080516020611b7383398151915281565b6102046103e6366004611837565b610cfd565b6000546001600160a01b03165b6040516001600160a01b0390911681526020016101e8565b6101dc61041e36600461186c565b610d4b565b6102aa600081565b6003546102aa565b6102aa60045481565b61044f61044a366004611837565b610d76565b6040516101e891906118d5565b61044f61046a366004611837565b610de5565b61020461047d366004611837565b610e52565b61020461049036600461186c565b611251565b610204611277565b6102aa60035481565b6102046104b4366004611898565b611400565b6002546103f8906001600160a01b031681565b60006001600160e01b03198216637965db0b60e01b14806104fd57506301ffc9a760e01b6001600160e01b03198316145b92915050565b61050b611479565b6002546040516370a0823160e01b81523060048201526000916001600160a01b0316906370a0823190602401602060405180830381865afa158015610554573d6000803e3d6000fd5b505050506040513d601f19601f820116820180604052508101906105789190611922565b9050818110156105c65760405162461bcd60e51b8152602060048201526014602482015273496e73756666696369656e742062616c616e636560601b60448201526064015b60405180910390fd5b60025460405163a9059cbb60e01b8152336004820152602481018490526000916001600160a01b03169063a9059cbb906044016020604051808303816000875af1158015610618573d6000803e3d6000fd5b505050506040513d601f19601f8201168201806040525081019061063c919061193b565b90508061065b5760405162461bcd60e51b81526004016105bd9061195d565b505050565b6000828152600160208190526040909120015461067c816114d3565b61065b83836114dd565b6001600160a01b03811633146106f65760405162461bcd60e51b815260206004820152602f60248201527f416363657373436f6e74726f6c3a2063616e206f6e6c792072656e6f756e636560448201526e103937b632b9903337b91039b2b63360891b60648201526084016105bd565b6107008282611548565b5050565b61070c611479565b6002546040516370a0823160e01b81523060048201526000916001600160a01b0316906370a0823190602401602060405180830381865afa158015610755573d6000803e3d6000fd5b505050506040513d601f19601f820116820180604052508101906107799190611922565b60025460405163a9059cbb60e01b8152336004820152602481018390529192506000916001600160a01b039091169063a9059cbb906044016020604051808303816000875af11580156107d0573d6000803e3d6000fd5b505050506040513d601f19601f820116820180604052508101906107f4919061193b565b9050806107005760405162461bcd60e51b81526004016105bd9061195d565b61082b600080516020611b7383398151915233610d4b565b8061084057506000546001600160a01b031633145b61085c5760405162461bcd60e51b81526004016105bd9061198c565b60055460ff1661087e5760405162461bcd60e51b81526004016105bd906119ba565b600354600090815260066020526040902042600290910155565b60055460ff166108ba5760405162461bcd60e51b81526004016105bd906119ba565b60035460009081526006602052604090206002015442106109115760405162461bcd60e51b815260206004820152601160248201527010995d1d1a5b99c81a185cc8195b991959607a1b60448201526064016105bd565b600354600090815260066020908152604080832033845260090190915290205460ff16156109735760405162461bcd60e51b815260206004820152600f60248201526e165bdd48185b1c9958591e4818995d608a1b60448201526064016105bd565b816000036109b85760405162461bcd60e51b81526020600482015260126024820152710416d6f756e742063616e6e6f7420626520360741b60448201526064016105bd565b80600114806109c75750806002145b610a0c5760405162461bcd60e51b81526020600482015260166024820152752334b3b43a32b91036bab9ba10313290189037b9101960511b60448201526064016105bd565b600254604051636eb1769f60e11b81523360048201523060248201526000916001600160a01b03169063dd62ed3e90604401602060405180830381865afa158015610a5b573d6000803e3d6000fd5b505050506040513d601f19601f82011682018060405250810190610a7f9190611922565b905082811015610ae65760405162461bcd60e51b815260206004820152602c60248201527f596f75206e65656420746f20617070726f76652074686520746f6b656e20747260448201526b185b9cd9995c88199a5c9cdd60a21b60648201526084016105bd565b6002546040516323b872dd60e01b8152336004820152306024820152604481018590526000916001600160a01b0316906323b872dd906064016020604051808303816000875af1158015610b3e573d6000803e3d6000fd5b505050506040513d601f19601f82011682018060405250810190610b62919061193b565b905080610b815760405162461bcd60e51b81526004016105bd9061195d565b6000610b92856402540be4006119fe565b905080600660006003548152602001908152602001600020600a016000828254610bbc9190611a15565b909155505060035460009081526006602090815260408083203384526009019091529020805460ff19166001908117909155849003610c6e5760038054600090815260066020818152604080842033808652908601835281852087905585548552928252808420600401805460018101825590855291842090910180546001600160a01b031916909217909155915481529081206005018054839290610c63908490611a15565b90915550610ce29050565b60038054600090815260066020818152604080842033808652908401835281852087905585548552928252808420600701805460018101825590855291842090910180546001600160a01b031916909217909155915481529081206008018054839290610cdc908490611a15565b90915550505b5050505050565b610cf1611479565b610cfb60006115af565b565b610d15600080516020611b7383398151915233610d4b565b80610d2a57506000546001600160a01b031633145b610d465760405162461bcd60e51b81526004016105bd9061198c565b600455565b60009182526001602090815260408084206001600160a01b0393909316845291905290205460ff1690565b600081815260066020908152604091829020600401805483518184028101840190945280845260609392830182828015610dd957602002820191906000526020600020905b81546001600160a01b03168152600190910190602001808311610dbb575b50505050509050919050565b600081815260066020908152604091829020600701805483518184028101840190945280845260609392830182828015610dd9576020028201919060005260206000209081546001600160a01b03168152600190910190602001808311610dbb5750505050509050919050565b610e6a600080516020611b7383398151915233610d4b565b80610e7f57506000546001600160a01b031633145b610e9b5760405162461bcd60e51b81526004016105bd9061198c565b60055460ff16610ebd5760405162461bcd60e51b81526004016105bd906119ba565b8060011480610ecc5750806002145b610f105760405162461bcd60e51b81526020600482015260156024820152742bb4b73732b91036bab9ba10313290189037b9101960591b60448201526064016105bd565b806001036110875760005b600354600090815260066020526040902060040154811015611081576003546000908152600660205260408120600401805483908110610f5d57610f5d611a28565b600091825260208083209091015460038054808552600680855260408087206001600160a01b0390951680885293850186528620549186529093526005820154600a90920154909450919291610fb390846119fe565b610fbd9190611a3e565b9050610fce6402540be40082611a3e565b60025460405163a9059cbb60e01b81526001600160a01b038681166004830152602482018490529293506000929091169063a9059cbb906044016020604051808303816000875af1158015611027573d6000803e3d6000fd5b505050506040513d601f19601f8201168201806040525081019061104b919061193b565b90508061106a5760405162461bcd60e51b81526004016105bd9061195d565b50505050808061107990611a60565b915050610f1b565b506111f0565b60005b6003546000908152600660205260409020600701548110156111ee5760035460009081526006602052604081206007018054839081106110cc576110cc611a28565b6000918252602080832090910154600354808452600680845260408086206001600160a01b0390941680875284830186529086205492865293526008820154600a90920154929450929161112090846119fe565b61112a9190611a3e565b905061113b6402540be40082611a3e565b60025460405163a9059cbb60e01b81526001600160a01b038681166004830152602482018490529293506000929091169063a9059cbb906044016020604051808303816000875af1158015611194573d6000803e3d6000fd5b505050506040513d601f19601f820116820180604052508101906111b8919061193b565b9050806111d75760405162461bcd60e51b81526004016105bd9061195d565b5050505080806111e690611a60565b91505061108a565b505b60038054600090815260066020908152604091829020600b018490556005805460ff19169055915481519081529182018390527f4c4660db760944215f41e957066d756ad5fd0eed1b4640632322eb06f77b034d910160405180910390a150565b6000828152600160208190526040909120015461126d816114d3565b61065b8383611548565b61128f600080516020611b7383398151915233610d4b565b806112a457506000546001600160a01b031633145b6112c05760405162461bcd60e51b81526004016105bd9061198c565b60055460ff16156113135760405162461bcd60e51b815260206004820152601860248201527f47616d652068617320616c72656164792073746172746564000000000000000060448201526064016105bd565b6005805460ff191660011790556003805490600061133083611a60565b9091555050600354600081815260066020526040902090815542600190910181905560045461135e91611a15565b6003805460009081526006602052604080822060020193909355815481528281206005018190558154815282812060080181905581548152828120600a0181905581548152918220600b0191909155546004547fedb371157a97763aaa1b348e6811cbb8c9eb299aaf93a6f5ba91f312bcb40fcf919042906113e09082611a15565b6040805193845260208401929092529082015260600160405180910390a1565b611408611479565b6001600160a01b03811661146d5760405162461bcd60e51b815260206004820152602660248201527f4f776e61626c653a206e6577206f776e657220697320746865207a65726f206160448201526564647265737360d01b60648201526084016105bd565b611476816115af565b50565b6000546001600160a01b03163314610cfb5760405162461bcd60e51b815260206004820181905260248201527f4f776e61626c653a2063616c6c6572206973206e6f7420746865206f776e657260448201526064016105bd565b61147681336115ff565b6114e78282610d4b565b6107005760008281526001602081815260408084206001600160a01b0386168086529252808420805460ff19169093179092559051339285917f2f8788117e7eff1d82e926ec794901d17c78024a50270940304540a733656f0d9190a45050565b6115528282610d4b565b156107005760008281526001602090815260408083206001600160a01b0385168085529252808320805460ff1916905551339285917ff6391f5c32d9c69d2a47ea670b442974b53935d1edc7fd64eb21e047a839171b9190a45050565b600080546001600160a01b038381166001600160a01b0319831681178455604051919092169283917f8be0079c531659141344cd1fd0a4f28419497f9722a3daafe3b4186f6b6457e09190a35050565b6116098282610d4b565b6107005761161681611658565b61162183602061166a565b604051602001611632929190611a9d565b60408051601f198184030181529082905262461bcd60e51b82526105bd91600401611b12565b60606104fd6001600160a01b03831660145b606060006116798360026119fe565b611684906002611a15565b67ffffffffffffffff81111561169c5761169c611b45565b6040519080825280601f01601f1916602001820160405280156116c6576020820181803683370190505b509050600360fc1b816000815181106116e1576116e1611a28565b60200101906001600160f81b031916908160001a905350600f60fb1b8160018151811061171057611710611a28565b60200101906001600160f81b031916908160001a90535060006117348460026119fe565b61173f906001611a15565b90505b60018111156117b7576f181899199a1a9b1b9c1cb0b131b232b360811b85600f166010811061177357611773611a28565b1a60f81b82828151811061178957611789611a28565b60200101906001600160f81b031916908160001a90535060049490941c936117b081611b5b565b9050611742565b5083156118065760405162461bcd60e51b815260206004820181905260248201527f537472696e67733a20686578206c656e67746820696e73756666696369656e7460448201526064016105bd565b9392505050565b60006020828403121561181f57600080fd5b81356001600160e01b03198116811461180657600080fd5b60006020828403121561184957600080fd5b5035919050565b80356001600160a01b038116811461186757600080fd5b919050565b6000806040838503121561187f57600080fd5b8235915061188f60208401611850565b90509250929050565b6000602082840312156118aa57600080fd5b61180682611850565b600080604083850312156118c657600080fd5b50508035926020909101359150565b6020808252825182820181905260009190848201906040850190845b818110156119165783516001600160a01b0316835292840192918401916001016118f1565b50909695505050505050565b60006020828403121561193457600080fd5b5051919050565b60006020828403121561194d57600080fd5b8151801515811461180657600080fd5b602080825260159082015274151bdad95b881d1c985b9cd9995c8819985a5b1959605a1b604082015260600190565b6020808252601490820152732cb7ba9030b932903737ba1030b71030b236b4b760611b604082015260600190565b60208082526014908201527311d85b59481a185cc81b9bdd081cdd185c9d195960621b604082015260600190565b634e487b7160e01b600052601160045260246000fd5b80820281158282048414176104fd576104fd6119e8565b808201808211156104fd576104fd6119e8565b634e487b7160e01b600052603260045260246000fd5b600082611a5b57634e487b7160e01b600052601260045260246000fd5b500490565b600060018201611a7257611a726119e8565b5060010190565b60005b83811015611a94578181015183820152602001611a7c565b50506000910152565b7f416363657373436f6e74726f6c3a206163636f756e7420000000000000000000815260008351611ad5816017850160208801611a79565b7001034b99036b4b9b9b4b733903937b6329607d1b6017918401918201528351611b06816028840160208801611a79565b01602801949350505050565b6020815260008251806020840152611b31816040850160208701611a79565b601f01601f19169190910160400192915050565b634e487b7160e01b600052604160045260246000fd5b600081611b6a57611b6a6119e8565b50600019019056fea49807205ce4d355092ef5a8a18f56e8913cf4a201fbe287825b095693c21775a2646970667358221220257c37ae07c23d4928ada99330da164b33539f632c8404fd405f194d69bf3c2664736f6c63430008140033",
  "linkReferences": {},
  "deployedLinkReferences": {}
}