{
  "_format": "hh-sol-artifact-1",
  "contractName": "Betting",
  "sourceName": "contracts/Betting.sol",
  "abi": [
    {
      "inputs": [
        {
          "internalType": "address",
          "name": "_token",
          "type": "address"
        },
        {
          "internalType": "address[]",
          "name": "admins",
          "type": "address[]"
        }
      ],
      "stateMutability": "nonpayable",
      "type": "constructor"
    },
    {
      "anonymous": false,
      "inputs": [
        {
          "indexed": false,
          "internalType": "uint256",
          "name": "gameId",
          "type": "uint256"
        },
        {
          "indexed": false,
          "internalType": "uint256",
          "name": "winner",
          "type": "uint256"
        }
      ],
      "name": "GameEnded",
      "type": "event"
    },
    {
      "anonymous": false,
      "inputs": [
        {
          "indexed": false,
          "internalType": "uint256",
          "name": "gameId",
          "type": "uint256"
        },
        {
          "indexed": false,
          "internalType": "uint256",
          "name": "startTime",
          "type": "uint256"
        },
        {
          "indexed": false,
          "internalType": "uint256",
          "name": "endTime",
          "type": "uint256"
        }
      ],
      "name": "GameStarted",
      "type": "event"
    },
    {
      "anonymous": false,
      "inputs": [
        {
          "indexed": true,
          "internalType": "address",
          "name": "previousOwner",
          "type": "address"
        },
        {
          "indexed": true,
          "internalType": "address",
          "name": "newOwner",
          "type": "address"
        }
      ],
      "name": "OwnershipTransferred",
      "type": "event"
    },
    {
      "anonymous": false,
      "inputs": [
        {
          "indexed": true,
          "internalType": "bytes32",
          "name": "role",
          "type": "bytes32"
        },
        {
          "indexed": true,
          "internalType": "bytes32",
          "name": "previousAdminRole",
          "type": "bytes32"
        },
        {
          "indexed": true,
          "internalType": "bytes32",
          "name": "newAdminRole",
          "type": "bytes32"
        }
      ],
      "name": "RoleAdminChanged",
      "type": "event"
    },
    {
      "anonymous": false,
      "inputs": [
        {
          "indexed": true,
          "internalType": "bytes32",
          "name": "role",
          "type": "bytes32"
        },
        {
          "indexed": true,
          "internalType": "address",
          "name": "account",
          "type": "address"
        },
        {
          "indexed": true,
          "internalType": "address",
          "name": "sender",
          "type": "address"
        }
      ],
      "name": "RoleGranted",
      "type": "event"
    },
    {
      "anonymous": false,
      "inputs": [
        {
          "indexed": true,
          "internalType": "bytes32",
          "name": "role",
          "type": "bytes32"
        },
        {
          "indexed": true,
          "internalType": "address",
          "name": "account",
          "type": "address"
        },
        {
          "indexed": true,
          "internalType": "address",
          "name": "sender",
          "type": "address"
        }
      ],
      "name": "RoleRevoked",
      "type": "event"
    },
    {
      "inputs": [],
      "name": "ADMIN_ROLE",
      "outputs": [
        {
          "internalType": "bytes32",
          "name": "",
          "type": "bytes32"
        }
      ],
      "stateMutability": "view",
      "type": "function"
    },
    {
      "inputs": [],
      "name": "DEFAULT_ADMIN_ROLE",
      "outputs": [
        {
          "internalType": "bytes32",
          "name": "",
          "type": "bytes32"
        }
      ],
      "stateMutability": "view",
      "type": "function"
    },
    {
      "inputs": [
        {
          "internalType": "uint256",
          "name": "_bet",
          "type": "uint256"
        },
        {
          "internalType": "uint256",
          "name": "fighter",
          "type": "uint256"
        }
      ],
      "name": "bet",
      "outputs": [],
      "stateMutability": "payable",
      "type": "function"
    },
    {
      "inputs": [],
      "name": "emergencyStopBets",
      "outputs": [],
      "stateMutability": "nonpayable",
      "type": "function"
    },
    {
      "inputs": [
        {
          "internalType": "uint256",
          "name": "_winner",
          "type": "uint256"
        }
      ],
      "name": "endGame",
      "outputs": [],
      "stateMutability": "nonpayable",
      "type": "function"
    },
    {
      "inputs": [],
      "name": "gameId",
      "outputs": [
        {
          "internalType": "uint256",
          "name": "",
          "type": "uint256"
        }
      ],
      "stateMutability": "view",
      "type": "function"
    },
    {
      "inputs": [],
      "name": "gameStarted",
      "outputs": [
        {
          "internalType": "bool",
          "name": "",
          "type": "bool"
        }
      ],
      "stateMutability": "view",
      "type": "function"
    },
    {
      "inputs": [
        {
          "internalType": "uint256",
          "name": "",
          "type": "uint256"
        }
      ],
      "name": "games",
      "outputs": [
        {
          "internalType": "uint256",
          "name": "id",
          "type": "uint256"
        },
        {
          "internalType": "uint256",
          "name": "startTime",
          "type": "uint256"
        },
        {
          "internalType": "uint256",
          "name": "bettingEndTime",
          "type": "uint256"
        },
        {
          "internalType": "uint256",
          "name": "totalBetOnFighter1",
          "type": "uint256"
        },
        {
          "internalType": "uint256",
          "name": "totalBetOnFighter2",
          "type": "uint256"
        },
        {
          "internalType": "uint256",
          "name": "totalBet",
          "type": "uint256"
        },
        {
          "internalType": "uint256",
          "name": "winner",
          "type": "uint256"
        }
      ],
      "stateMutability": "view",
      "type": "function"
    },
    {
      "inputs": [
        {
          "internalType": "uint256",
          "name": "_gameId",
          "type": "uint256"
        }
      ],
      "name": "getBetOnFighter1",
      "outputs": [
        {
          "internalType": "address[]",
          "name": "",
          "type": "address[]"
        }
      ],
      "stateMutability": "view",
      "type": "function"
    },
    {
      "inputs": [
        {
          "internalType": "uint256",
          "name": "_gameId",
          "type": "uint256"
        }
      ],
      "name": "getBetOnFighter2",
      "outputs": [
        {
          "internalType": "address[]",
          "name": "",
          "type": "address[]"
        }
      ],
      "stateMutability": "view",
      "type": "function"
    },
    {
      "inputs": [
        {
          "internalType": "uint256",
          "name": "_gameId",
          "type": "uint256"
        }
      ],
      "name": "getGameInfo",
      "outputs": [
        {
          "internalType": "uint256",
          "name": "",
          "type": "uint256"
        },
        {
          "internalType": "uint256",
          "name": "",
          "type": "uint256"
        },
        {
          "internalType": "uint256",
          "name": "",
          "type": "uint256"
        },
        {
          "internalType": "uint256",
          "name": "",
          "type": "uint256"
        },
        {
          "internalType": "uint256",
          "name": "",
          "type": "uint256"
        },
        {
          "internalType": "uint256",
          "name": "",
          "type": "uint256"
        }
      ],
      "stateMutability": "view",
      "type": "function"
    },
    {
      "inputs": [],
      "name": "getLastGameId",
      "outputs": [
        {
          "internalType": "uint256",
          "name": "",
          "type": "uint256"
        }
      ],
      "stateMutability": "view",
      "type": "function"
    },
    {
      "inputs": [
        {
          "internalType": "bytes32",
          "name": "role",
          "type": "bytes32"
        }
      ],
      "name": "getRoleAdmin",
      "outputs": [
        {
          "internalType": "bytes32",
          "name": "",
          "type": "bytes32"
        }
      ],
      "stateMutability": "view",
      "type": "function"
    },
    {
      "inputs": [
        {
          "internalType": "bytes32",
          "name": "role",
          "type": "bytes32"
        },
        {
          "internalType": "address",
          "name": "account",
          "type": "address"
        }
      ],
      "name": "grantRole",
      "outputs": [],
      "stateMutability": "nonpayable",
      "type": "function"
    },
    {
      "inputs": [
        {
          "internalType": "bytes32",
          "name": "role",
          "type": "bytes32"
        },
        {
          "internalType": "address",
          "name": "account",
          "type": "address"
        }
      ],
      "name": "hasRole",
      "outputs": [
        {
          "internalType": "bool",
          "name": "",
          "type": "bool"
        }
      ],
      "stateMutability": "view",
      "type": "function"
    },
    {
      "inputs": [],
      "name": "owner",
      "outputs": [
        {
          "internalType": "address",
          "name": "",
          "type": "address"
        }
      ],
      "stateMutability": "view",
      "type": "function"
    },
    {
      "inputs": [],
      "name": "renounceOwnership",
      "outputs": [],
      "stateMutability": "nonpayable",
      "type": "function"
    },
    {
      "inputs": [
        {
          "internalType": "bytes32",
          "name": "role",
          "type": "bytes32"
        },
        {
          "internalType": "address",
          "name": "account",
          "type": "address"
        }
      ],
      "name": "renounceRole",
      "outputs": [],
      "stateMutability": "nonpayable",
      "type": "function"
    },
    {
      "inputs": [
        {
          "internalType": "bytes32",
          "name": "role",
          "type": "bytes32"
        },
        {
          "internalType": "address",
          "name": "account",
          "type": "address"
        }
      ],
      "name": "revokeRole",
      "outputs": [],
      "stateMutability": "nonpayable",
      "type": "function"
    },
    {
      "inputs": [],
      "name": "startGame",
      "outputs": [],
      "stateMutability": "nonpayable",
      "type": "function"
    },
    {
      "inputs": [
        {
          "internalType": "bytes4",
          "name": "interfaceId",
          "type": "bytes4"
        }
      ],
      "name": "supportsInterface",
      "outputs": [
        {
          "internalType": "bool",
          "name": "",
          "type": "bool"
        }
      ],
      "stateMutability": "view",
      "type": "function"
    },
    {
      "inputs": [],
      "name": "token",
      "outputs": [
        {
          "internalType": "contract IERC20",
          "name": "",
          "type": "address"
        }
      ],
      "stateMutability": "view",
      "type": "function"
    },
    {
      "inputs": [
        {
          "internalType": "address",
          "name": "newOwner",
          "type": "address"
        }
      ],
      "name": "transferOwnership",
      "outputs": [],
      "stateMutability": "nonpayable",
      "type": "function"
    },
    {
      "inputs": [],
      "name": "withdraw",
      "outputs": [],
      "stateMutability": "nonpayable",
      "type": "function"
    },
    {
      "inputs": [
        {
          "internalType": "uint256",
          "name": "_amount",
          "type": "uint256"
        }
      ],
      "name": "withdrawAmount",
      "outputs": [],
      "stateMutability": "nonpayable",
      "type": "function"
    }
  ],
  "bytecode": "0x608060405260006003556004805460ff191690553480156200002057600080fd5b5060405162001eff38038062001eff8339810160408190526200004391620001fd565b6200004e33620000e2565b600280546001600160a01b0319166001600160a01b03841617905560005b8151811015620000d957620000c47fa49807205ce4d355092ef5a8a18f56e8913cf4a201fbe287825b095693c21775838381518110620000b057620000b0620002e6565b60200260200101516200013260201b60201c565b80620000d081620002fc565b9150506200006c565b50505062000324565b600080546001600160a01b038381166001600160a01b0319831681178455604051919092169283917f8be0079c531659141344cd1fd0a4f28419497f9722a3daafe3b4186f6b6457e09190a35050565b6200013e828262000142565b5050565b60008281526001602090815260408083206001600160a01b038516845290915290205460ff166200013e5760008281526001602081815260408084206001600160a01b0386168086529252808420805460ff19169093179092559051339285917f2f8788117e7eff1d82e926ec794901d17c78024a50270940304540a733656f0d9190a45050565b80516001600160a01b0381168114620001e257600080fd5b919050565b634e487b7160e01b600052604160045260246000fd5b600080604083850312156200021157600080fd5b6200021c83620001ca565b602084810151919350906001600160401b03808211156200023c57600080fd5b818601915086601f8301126200025157600080fd5b815181811115620002665762000266620001e7565b8060051b604051601f19603f830116810181811085821117156200028e576200028e620001e7565b604052918252848201925083810185019189831115620002ad57600080fd5b938501935b82851015620002d657620002c685620001ca565b84529385019392850192620002b2565b8096505050505050509250929050565b634e487b7160e01b600052603260045260246000fd5b6000600182016200031d57634e487b7160e01b600052601160045260246000fd5b5060010190565b611bcb80620003346000396000f3fe6080604052600436106101665760003560e01c806375b238fc116100d1578063c7189dac1161008a578063d65ab5f211610064578063d65ab5f2146104e9578063d7c81b55146104fe578063f2fde38b14610514578063fc0c546a1461053457600080fd5b8063c7189dac14610489578063d0399bb8146104a9578063d547741f146104c957600080fd5b806375b238fc146103be5780638da5cb5b146103e057806391d1485414610412578063a217fddf14610432578063a35b6ec714610447578063b14ff5f11461045c57600080fd5b80633ccfd60b116101235780633ccfd60b146102d357806347e1d550146102e85780635e123ce4146103675780636bbd7886146103815780636ffcc71914610396578063715018a6146103a957600080fd5b806301ffc9a71461016b5780630562b9f7146101a0578063117a5b90146101c2578063248a9ca3146102545780632f2ff15d1461029357806336568abe146102b3575b600080fd5b34801561017757600080fd5b5061018b610186366004611810565b610554565b60405190151581526020015b60405180910390f35b3480156101ac57600080fd5b506101c06101bb36600461183a565b61058b565b005b3480156101ce57600080fd5b5061021f6101dd36600461183a565b600560205280600052604060002060009150905080600001549080600101549080600201549080600501549080600801549080600a01549080600b0154905087565b604080519788526020880196909652948601939093526060850191909152608084015260a083015260c082015260e001610197565b34801561026057600080fd5b5061028561026f36600461183a565b6000908152600160208190526040909120015490565b604051908152602001610197565b34801561029f57600080fd5b506101c06102ae36600461186f565b6106e8565b3480156102bf57600080fd5b506101c06102ce36600461186f565b61070e565b3480156102df57600080fd5b506101c061078c565b3480156102f457600080fd5b5061033a61030336600461183a565b6000908152600560208190526040909120805460018201546002830154938301546008840154600a90940154929591949390929091565b604080519687526020870195909552938501929092526060840152608083015260a082015260c001610197565b34801561037357600080fd5b5060045461018b9060ff1681565b34801561038d57600080fd5b506101c061089b565b6101c06103a436600461189b565b610920565b3480156103b557600080fd5b506101c0610d5b565b3480156103ca57600080fd5b50610285600080516020611b7683398151915281565b3480156103ec57600080fd5b506000546001600160a01b03165b6040516001600160a01b039091168152602001610197565b34801561041e57600080fd5b5061018b61042d36600461186f565b610d6f565b34801561043e57600080fd5b50610285600081565b34801561045357600080fd5b50600354610285565b34801561046857600080fd5b5061047c61047736600461183a565b610d9a565b60405161019791906118bd565b34801561049557600080fd5b5061047c6104a436600461183a565b610e09565b3480156104b557600080fd5b506101c06104c436600461183a565b610e76565b3480156104d557600080fd5b506101c06104e436600461186f565b611257565b3480156104f557600080fd5b506101c061127d565b34801561050a57600080fd5b5061028560035481565b34801561052057600080fd5b506101c061052f36600461190a565b611403565b34801561054057600080fd5b506002546103fa906001600160a01b031681565b60006001600160e01b03198216637965db0b60e01b148061058557506301ffc9a760e01b6001600160e01b03198316145b92915050565b61059361147c565b6002546040516370a0823160e01b81523060048201526000916001600160a01b0316906370a0823190602401602060405180830381865afa1580156105dc573d6000803e3d6000fd5b505050506040513d601f19601f820116820180604052508101906106009190611925565b90508181101561064e5760405162461bcd60e51b8152602060048201526014602482015273496e73756666696369656e742062616c616e636560601b60448201526064015b60405180910390fd5b60025460405163a9059cbb60e01b8152336004820152602481018490526000916001600160a01b03169063a9059cbb906044016020604051808303816000875af11580156106a0573d6000803e3d6000fd5b505050506040513d601f19601f820116820180604052508101906106c4919061193e565b9050806106e35760405162461bcd60e51b815260040161064590611960565b505050565b60008281526001602081905260409091200154610704816114d6565b6106e383836114e0565b6001600160a01b038116331461077e5760405162461bcd60e51b815260206004820152602f60248201527f416363657373436f6e74726f6c3a2063616e206f6e6c792072656e6f756e636560448201526e103937b632b9903337b91039b2b63360891b6064820152608401610645565b610788828261154b565b5050565b61079461147c565b6002546040516370a0823160e01b81523060048201526000916001600160a01b0316906370a0823190602401602060405180830381865afa1580156107dd573d6000803e3d6000fd5b505050506040513d601f19601f820116820180604052508101906108019190611925565b60025460405163a9059cbb60e01b8152336004820152602481018390529192506000916001600160a01b039091169063a9059cbb906044016020604051808303816000875af1158015610858573d6000803e3d6000fd5b505050506040513d601f19601f8201168201806040525081019061087c919061193e565b9050806107885760405162461bcd60e51b815260040161064590611960565b6108b3600080516020611b7683398151915233610d6f565b806108c857506000546001600160a01b031633145b6108e45760405162461bcd60e51b81526004016106459061198f565b60045460ff166109065760405162461bcd60e51b8152600401610645906119bd565b600354600090815260056020526040902042600290910155565b60045460ff166109425760405162461bcd60e51b8152600401610645906119bd565b60035460009081526005602052604090206002015442106109995760405162461bcd60e51b815260206004820152601160248201527010995d1d1a5b99c81a185cc8195b991959607a1b6044820152606401610645565b600354600090815260056020908152604080832033845260090190915290205460ff16156109fb5760405162461bcd60e51b815260206004820152600f60248201526e165bdd48185b1c9958591e4818995d608a1b6044820152606401610645565b81600003610a405760405162461bcd60e51b81526020600482015260126024820152710416d6f756e742063616e6e6f7420626520360741b6044820152606401610645565b8060011480610a4f5750806002145b610a945760405162461bcd60e51b81526020600482015260166024820152752334b3b43a32b91036bab9ba10313290189037b9101960511b6044820152606401610645565b600254604051636eb1769f60e11b81523360048201523060248201526000916001600160a01b03169063dd62ed3e90604401602060405180830381865afa158015610ae3573d6000803e3d6000fd5b505050506040513d601f19601f82011682018060405250810190610b079190611925565b905082811015610b6e5760405162461bcd60e51b815260206004820152602c60248201527f596f75206e65656420746f20617070726f76652074686520746f6b656e20747260448201526b185b9cd9995c88199a5c9cdd60a21b6064820152608401610645565b6002546040516323b872dd60e01b8152336004820152306024820152604481018590526000916001600160a01b0316906323b872dd906064016020604051808303816000875af1158015610bc6573d6000803e3d6000fd5b505050506040513d601f19601f82011682018060405250810190610bea919061193e565b905080610c095760405162461bcd60e51b815260040161064590611960565b6003546000908152600560205260408120600a018054869290610c2d908490611a01565b909155505060035460009081526005602090815260408083203384526009019091529020805460ff19166001908117909155839003610cdf576003805460009081526005602081815260408084203380865290860183528185208a905585548552838352818520600401805460018101825590865292852090920180546001600160a01b031916909217909155925482529181209091018054869290610cd4908490611a01565b90915550610d559050565b60038054600090815260056020818152604080842033808652600690910183528185208a905585548552928252808420600701805460018101825590855291842090910180546001600160a01b031916909217909155915481529081206008018054869290610d4f908490611a01565b90915550505b50505050565b610d6361147c565b610d6d60006115b2565b565b60009182526001602090815260408084206001600160a01b0393909316845291905290205460ff1690565b600081815260056020908152604091829020600401805483518184028101840190945280845260609392830182828015610dfd57602002820191906000526020600020905b81546001600160a01b03168152600190910190602001808311610ddf575b50505050509050919050565b600081815260056020908152604091829020600701805483518184028101840190945280845260609392830182828015610dfd576020028201919060005260206000209081546001600160a01b03168152600190910190602001808311610ddf5750505050509050919050565b610e8e600080516020611b7683398151915233610d6f565b80610ea357506000546001600160a01b031633145b610ebf5760405162461bcd60e51b81526004016106459061198f565b60045460ff16610ee15760405162461bcd60e51b8152600401610645906119bd565b8060011480610ef05750806002145b610f345760405162461bcd60e51b81526020600482015260156024820152742bb4b73732b91036bab9ba10313290189037b9101960591b6044820152606401610645565b806001036110995760005b600354600090815260056020526040902060040154811015611093576003546000908152600560205260408120600401805483908110610f8157610f81611a14565b600091825260208083209091015460038054808552600580855260408087206001600160a01b0395861680895294810187529087205460025493885295829052600a81015491015492965093949392169163a9059cbb91869190610fe59087611a2a565b610fef9190611a4c565b6040516001600160e01b031960e085901b1681526001600160a01b03909216600483015260248201526044016020604051808303816000875af115801561103a573d6000803e3d6000fd5b505050506040513d601f19601f8201168201806040525081019061105e919061193e565b90508061107d5760405162461bcd60e51b815260040161064590611960565b505050808061108b90611a63565b915050610f3f565b506111f6565b60005b6003546000908152600560205260409020600701548110156111f45760035460009081526005602052604081206007018054839081106110de576110de611a14565b6000918252602080832090910154600354808452600580845260408086206001600160a01b039485168088526006820187529187205460025494885292909552600a850154600890950154909650909493919092169163a9059cbb9186916111469087611a2a565b6111509190611a4c565b6040516001600160e01b031960e085901b1681526001600160a01b03909216600483015260248201526044016020604051808303816000875af115801561119b573d6000803e3d6000fd5b505050506040513d601f19601f820116820180604052508101906111bf919061193e565b9050806111de5760405162461bcd60e51b815260040161064590611960565b50505080806111ec90611a63565b91505061109c565b505b60038054600090815260056020908152604091829020600b018490556004805460ff19169055915481519081529182018390527f4c4660db760944215f41e957066d756ad5fd0eed1b4640632322eb06f77b034d910160405180910390a150565b60008281526001602081905260409091200154611273816114d6565b6106e3838361154b565b611295600080516020611b7683398151915233610d6f565b806112aa57506000546001600160a01b031633145b6112c65760405162461bcd60e51b81526004016106459061198f565b60045460ff16156113195760405162461bcd60e51b815260206004820152601860248201527f47616d652068617320616c7265616479207374617274656400000000000000006044820152606401610645565b6004805460ff191660011790556003805490600061133683611a63565b9091555050600354600081815260056020526040902090815542600190910181905561136490610258611a01565b6003805460009081526005602081905260408083206002019490945582548252838220018190558154815282812060080181905581548152828120600a0181905581548152918220600b0191909155547fedb371157a97763aaa1b348e6811cbb8c9eb299aaf93a6f5ba91f312bcb40fcf90426113e381610258611a01565b6040805193845260208401929092529082015260600160405180910390a1565b61140b61147c565b6001600160a01b0381166114705760405162461bcd60e51b815260206004820152602660248201527f4f776e61626c653a206e6577206f776e657220697320746865207a65726f206160448201526564647265737360d01b6064820152608401610645565b611479816115b2565b50565b6000546001600160a01b03163314610d6d5760405162461bcd60e51b815260206004820181905260248201527f4f776e61626c653a2063616c6c6572206973206e6f7420746865206f776e65726044820152606401610645565b6114798133611602565b6114ea8282610d6f565b6107885760008281526001602081815260408084206001600160a01b0386168086529252808420805460ff19169093179092559051339285917f2f8788117e7eff1d82e926ec794901d17c78024a50270940304540a733656f0d9190a45050565b6115558282610d6f565b156107885760008281526001602090815260408083206001600160a01b0385168085529252808320805460ff1916905551339285917ff6391f5c32d9c69d2a47ea670b442974b53935d1edc7fd64eb21e047a839171b9190a45050565b600080546001600160a01b038381166001600160a01b0319831681178455604051919092169283917f8be0079c531659141344cd1fd0a4f28419497f9722a3daafe3b4186f6b6457e09190a35050565b61160c8282610d6f565b610788576116198161165b565b61162483602061166d565b604051602001611635929190611aa0565b60408051601f198184030181529082905262461bcd60e51b825261064591600401611b15565b60606105856001600160a01b03831660145b6060600061167c836002611a4c565b611687906002611a01565b67ffffffffffffffff81111561169f5761169f611b48565b6040519080825280601f01601f1916602001820160405280156116c9576020820181803683370190505b509050600360fc1b816000815181106116e4576116e4611a14565b60200101906001600160f81b031916908160001a905350600f60fb1b8160018151811061171357611713611a14565b60200101906001600160f81b031916908160001a9053506000611737846002611a4c565b611742906001611a01565b90505b60018111156117ba576f181899199a1a9b1b9c1cb0b131b232b360811b85600f166010811061177657611776611a14565b1a60f81b82828151811061178c5761178c611a14565b60200101906001600160f81b031916908160001a90535060049490941c936117b381611b5e565b9050611745565b5083156118095760405162461bcd60e51b815260206004820181905260248201527f537472696e67733a20686578206c656e67746820696e73756666696369656e746044820152606401610645565b9392505050565b60006020828403121561182257600080fd5b81356001600160e01b03198116811461180957600080fd5b60006020828403121561184c57600080fd5b5035919050565b80356001600160a01b038116811461186a57600080fd5b919050565b6000806040838503121561188257600080fd5b8235915061189260208401611853565b90509250929050565b600080604083850312156118ae57600080fd5b50508035926020909101359150565b6020808252825182820181905260009190848201906040850190845b818110156118fe5783516001600160a01b0316835292840192918401916001016118d9565b50909695505050505050565b60006020828403121561191c57600080fd5b61180982611853565b60006020828403121561193757600080fd5b5051919050565b60006020828403121561195057600080fd5b8151801515811461180957600080fd5b602080825260159082015274151bdad95b881d1c985b9cd9995c8819985a5b1959605a1b604082015260600190565b6020808252601490820152732cb7ba9030b932903737ba1030b71030b236b4b760611b604082015260600190565b60208082526014908201527311d85b59481a185cc81b9bdd081cdd185c9d195960621b604082015260600190565b634e487b7160e01b600052601160045260246000fd5b80820180821115610585576105856119eb565b634e487b7160e01b600052603260045260246000fd5b600082611a4757634e487b7160e01b600052601260045260246000fd5b500490565b8082028115828204841417610585576105856119eb565b600060018201611a7557611a756119eb565b5060010190565b60005b83811015611a97578181015183820152602001611a7f565b50506000910152565b7f416363657373436f6e74726f6c3a206163636f756e7420000000000000000000815260008351611ad8816017850160208801611a7c565b7001034b99036b4b9b9b4b733903937b6329607d1b6017918401918201528351611b09816028840160208801611a7c565b01602801949350505050565b6020815260008251806020840152611b34816040850160208701611a7c565b601f01601f19169190910160400192915050565b634e487b7160e01b600052604160045260246000fd5b600081611b6d57611b6d6119eb565b50600019019056fea49807205ce4d355092ef5a8a18f56e8913cf4a201fbe287825b095693c21775a26469706673582212201595e3c4940301e926b213ee4ae28c02fd9214b2b8a36d13072a2d48a669deae64736f6c63430008140033",
  "linkReferences": {},
  "deployedLinkReferences": {}
}